{
  "address": "0x130553A2Ac3aBb90e6E69208441aAcc06Eeb7AA1",
  "abi": [
    {
      "inputs": [
        {
          "internalType": "address",
          "name": "_endpoint",
          "type": "address"
        }
      ],
      "stateMutability": "nonpayable",
      "type": "constructor"
    },
    {
      "anonymous": false,
      "inputs": [
        {
          "indexed": true,
          "internalType": "address",
          "name": "previousOwner",
          "type": "address"
        },
        {
          "indexed": true,
          "internalType": "address",
          "name": "newOwner",
          "type": "address"
        }
      ],
      "name": "OwnershipTransferred",
      "type": "event"
    },
    {
      "stateMutability": "payable",
      "type": "fallback"
    },
    {
      "inputs": [
        {
          "internalType": "address",
          "name": "token",
          "type": "address"
        },
        {
          "internalType": "address",
          "name": "spender",
          "type": "address"
        },
        {
          "internalType": "uint256",
          "name": "amount",
          "type": "uint256"
        }
      ],
      "name": "approveTokenSpender",
      "outputs": [],
      "stateMutability": "nonpayable",
      "type": "function"
    },
    {
      "inputs": [],
      "name": "endpoint",
      "outputs": [
        {
          "internalType": "contract ILayerZeroEndpoint",
          "name": "",
          "type": "address"
        }
      ],
      "stateMutability": "view",
      "type": "function"
    },
    {
      "inputs": [
        {
          "internalType": "uint16",
          "name": "_srcChainId",
          "type": "uint16"
        },
        {
          "internalType": "bytes",
          "name": "_srcAddress",
          "type": "bytes"
        }
      ],
      "name": "forceResumeReceive",
      "outputs": [],
      "stateMutability": "nonpayable",
      "type": "function"
    },
    {
      "inputs": [
        {
          "internalType": "uint16",
          "name": "",
          "type": "uint16"
        },
        {
          "internalType": "uint16",
          "name": "_chainId",
          "type": "uint16"
        },
        {
          "internalType": "address",
          "name": "",
          "type": "address"
        },
        {
          "internalType": "uint256",
          "name": "_configType",
          "type": "uint256"
        }
      ],
      "name": "getConfig",
      "outputs": [
        {
          "internalType": "bytes",
          "name": "",
          "type": "bytes"
        }
      ],
      "stateMutability": "view",
      "type": "function"
    },
    {
      "inputs": [],
      "name": "getCounter",
      "outputs": [
        {
          "internalType": "uint256",
          "name": "",
          "type": "uint256"
        }
      ],
      "stateMutability": "view",
      "type": "function"
    },
    {
      "inputs": [],
      "name": "getReceiveVersion",
      "outputs": [
        {
          "internalType": "uint16",
          "name": "",
          "type": "uint16"
        }
      ],
      "stateMutability": "view",
      "type": "function"
    },
    {
      "inputs": [],
      "name": "getSendVersion",
      "outputs": [
        {
          "internalType": "uint16",
          "name": "",
          "type": "uint16"
        }
      ],
      "stateMutability": "view",
      "type": "function"
    },
    {
      "inputs": [
        {
          "internalType": "uint16",
          "name": "_dstChainId",
          "type": "uint16"
        },
        {
          "internalType": "bytes",
          "name": "_dstCounterMockAddress",
          "type": "bytes"
        }
      ],
      "name": "incrementCounter",
      "outputs": [],
      "stateMutability": "payable",
      "type": "function"
    },
    {
      "inputs": [
        {
          "internalType": "uint16[]",
          "name": "_dstChainIds",
          "type": "uint16[]"
        },
        {
          "internalType": "bytes[]",
          "name": "_dstCounterMockAddresses",
          "type": "bytes[]"
        },
        {
          "internalType": "address payable",
          "name": "_refundAddr",
          "type": "address"
        }
      ],
      "name": "incrementCounterMulti",
      "outputs": [],
      "stateMutability": "payable",
      "type": "function"
    },
    {
      "inputs": [
        {
          "internalType": "uint16",
          "name": "_dstChainId",
          "type": "uint16"
        },
        {
          "internalType": "bytes",
          "name": "_dstCounterMockAddress",
          "type": "bytes"
        },
        {
          "internalType": "uint256",
          "name": "gasAmountForDst",
          "type": "uint256"
        }
      ],
      "name": "incrementCounterWithAdapterParamsV1",
      "outputs": [],
      "stateMutability": "payable",
      "type": "function"
    },
    {
      "inputs": [
        {
          "internalType": "uint16",
          "name": "_dstChainId",
          "type": "uint16"
        },
        {
          "internalType": "bytes",
          "name": "_dstCounterMockAddress",
          "type": "bytes"
        },
        {
          "internalType": "uint256",
          "name": "gasAmountForDst",
          "type": "uint256"
        },
        {
          "internalType": "uint256",
          "name": "airdropEthQty",
          "type": "uint256"
        },
        {
          "internalType": "address",
          "name": "airdropAddr",
          "type": "address"
        }
      ],
      "name": "incrementCounterWithAdapterParamsV2",
      "outputs": [],
      "stateMutability": "payable",
      "type": "function"
    },
    {
      "inputs": [
        {
          "internalType": "uint16",
          "name": "_dstChainId",
          "type": "uint16"
        },
        {
          "internalType": "bytes",
          "name": "_dstCounterMockAddress",
          "type": "bytes"
        },
        {
          "internalType": "bytes",
          "name": "payload",
          "type": "bytes"
        }
      ],
      "name": "incrementCounterWithPayload",
      "outputs": [],
      "stateMutability": "payable",
      "type": "function"
    },
    {
      "inputs": [
        {
          "internalType": "uint16",
          "name": "",
          "type": "uint16"
        },
        {
          "internalType": "bytes",
          "name": "_fromAddress",
          "type": "bytes"
        },
        {
          "internalType": "uint64",
          "name": "",
          "type": "uint64"
        },
        {
          "internalType": "bytes",
          "name": "_payload",
          "type": "bytes"
        }
      ],
      "name": "lzReceive",
      "outputs": [],
      "stateMutability": "nonpayable",
      "type": "function"
    },
    {
      "inputs": [],
      "name": "messageCounter",
      "outputs": [
        {
          "internalType": "uint256",
          "name": "",
          "type": "uint256"
        }
      ],
      "stateMutability": "view",
      "type": "function"
    },
    {
      "inputs": [],
      "name": "owner",
      "outputs": [
        {
          "internalType": "address",
          "name": "",
          "type": "address"
        }
      ],
      "stateMutability": "view",
      "type": "function"
    },
    {
      "inputs": [],
      "name": "payInZRO",
      "outputs": [
        {
          "internalType": "bool",
          "name": "",
          "type": "bool"
        }
      ],
      "stateMutability": "view",
      "type": "function"
    },
    {
      "inputs": [
        {
          "internalType": "address",
          "name": "",
          "type": "address"
        }
      ],
      "name": "remoteAddressCounter",
      "outputs": [
        {
          "internalType": "uint256",
          "name": "",
          "type": "uint256"
        }
      ],
      "stateMutability": "view",
      "type": "function"
    },
    {
      "inputs": [],
      "name": "renounceOwnership",
      "outputs": [],
      "stateMutability": "nonpayable",
      "type": "function"
    },
    {
      "inputs": [
        {
          "internalType": "uint16",
          "name": "",
          "type": "uint16"
        },
        {
          "internalType": "uint16",
          "name": "_chainId",
          "type": "uint16"
        },
        {
          "internalType": "uint256",
          "name": "_configType",
          "type": "uint256"
        },
        {
          "internalType": "bytes",
          "name": "_config",
          "type": "bytes"
        }
      ],
      "name": "setConfig",
      "outputs": [],
      "stateMutability": "nonpayable",
      "type": "function"
    },
    {
      "inputs": [
        {
          "internalType": "uint16",
          "name": "remoteChainId",
          "type": "uint16"
        },
        {
          "internalType": "uint16",
          "name": "confirmations",
          "type": "uint16"
        }
      ],
      "name": "setInboundConfirmations",
      "outputs": [],
      "stateMutability": "nonpayable",
      "type": "function"
    },
    {
      "inputs": [
        {
          "internalType": "uint16",
          "name": "dstChainId",
          "type": "uint16"
        },
        {
          "internalType": "address",
          "name": "oracle",
          "type": "address"
        }
      ],
      "name": "setOracle",
      "outputs": [],
      "stateMutability": "nonpayable",
      "type": "function"
    },
    {
      "inputs": [
        {
          "internalType": "uint16",
          "name": "remoteChainId",
          "type": "uint16"
        },
        {
          "internalType": "uint16",
          "name": "confirmations",
          "type": "uint16"
        }
      ],
      "name": "setOutboundConfirmations",
      "outputs": [],
      "stateMutability": "nonpayable",
      "type": "function"
    },
    {
      "inputs": [
        {
          "internalType": "bool",
          "name": "_payInZRO",
          "type": "bool"
        }
      ],
      "name": "setPayInZRO",
      "outputs": [],
      "stateMutability": "nonpayable",
      "type": "function"
    },
    {
      "inputs": [
        {
          "internalType": "uint16",
          "name": "version",
          "type": "uint16"
        }
      ],
      "name": "setReceiveVersion",
      "outputs": [],
      "stateMutability": "nonpayable",
      "type": "function"
    },
    {
      "inputs": [
        {
          "internalType": "uint16",
          "name": "version",
          "type": "uint16"
        }
      ],
      "name": "setSendVersion",
      "outputs": [],
      "stateMutability": "nonpayable",
      "type": "function"
    },
    {
      "inputs": [
        {
          "internalType": "address",
          "name": "newOwner",
          "type": "address"
        }
      ],
      "name": "transferOwnership",
      "outputs": [],
      "stateMutability": "nonpayable",
      "type": "function"
    },
    {
      "stateMutability": "payable",
      "type": "receive"
    }
  ],
  "transactionHash": "0xfd4aefdf948a49ca1e59d5e1b2e5aea365ac41b2ff499bc49e1f25be2d4023cf",
  "args": [
    "0xae92d5aD7583AD66E49A0c67BAd18F6ba52dDDc1"
  ],
  "numDeployments": 1,
  "solcInputHash": "23b37c3ce064226fcbce28c931af6ef0",
  "bytecode": "0x60806040523480156200001157600080fd5b5060405162002747380380620027478339810160408190526200003491620000b4565b600062000040620000b0565b600080546001600160a01b0319166001600160a01b0383169081178255604051929350917f8be0079c531659141344cd1fd0a4f28419497f9722a3daafe3b4186f6b6457e0908290a350600380546001600160a01b0319166001600160a01b0392909216919091179055620000e4565b3390565b600060208284031215620000c6578081fd5b81516001600160a01b0381168114620000dd578182fd5b9392505050565b61265380620000f46000396000f3fe6080604052600436106101a45760003560e01c8063715018a6116100e1578063b7e0f7ba1161008a578063d7d3c3b911610064578063d7d3c3b91461046d578063ed0cc14f1461048d578063f2fde38b146104a0578063f5ecbdbc146104c0576101fa565b8063b7e0f7ba14610418578063cbed8b9c14610438578063cf5d147114610458576101fa565b80638da5cb5b116100bb5780638da5cb5b146103dd5780639cd0e630146103f2578063a245b77b14610405576101fa565b8063715018a6146103915780637af9ce73146103a65780638ada066e146103c8576101fa565b806342d65a8d1161014e578063529c758811610128578063529c75881461030257806354a5beda1461032d5780635e280f111461034f5780636df6537114610371576101fa565b806342d65a8d146102af578063492e527e146102cf5780634dc21b1a146102ef576101fa565b806310ddb1371161017f57806310ddb1371461024f5780632b2257dc1461026f57806341e63d131461028f576101fa565b80621d3567146101fc57806307e0db171461021c57806308d968b91461023c576101fa565b366101fa576103e8341080156101bb575034600a14155b6101fa576040517f08c379a00000000000000000000000000000000000000000000000000000000081526004016101f19061226d565b60405180910390fd5b005b34801561020857600080fd5b506101fa610217366004611e37565b6104ed565b34801561022857600080fd5b506101fa610237366004611c20565b61066d565b6101fa61024a366004611dbd565b6106f8565b34801561025b57600080fd5b506101fa61026a366004611c20565b6107e8565b34801561027b57600080fd5b506101fa61028a366004611ec3565b61083e565b34801561029b57600080fd5b506101fa6102aa366004611b7e565b610964565b3480156102bb57600080fd5b506101fa6102ca366004611c90565b610a56565b3480156102db57600080fd5b506101fa6102ea366004611c58565b610a5b565b6101fa6102fd366004611afd565b610b82565b34801561030e57600080fd5b50610317610d62565b6040516103249190612497565b60405180910390f35b34801561033957600080fd5b50610342610d68565b60405161032491906122f0565b34801561035b57600080fd5b50610364610e14565b6040516103249190612117565b34801561037d57600080fd5b506101fa61038c366004611ec3565b610e30565b34801561039d57600080fd5b506101fa610ef2565b3480156103b257600080fd5b506103bb611009565b604051610324919061215e565b3480156103d457600080fd5b5061031761102a565b3480156103e957600080fd5b50610364611030565b6101fa610400366004611ce3565b61104c565b6101fa610413366004611d63565b611128565b34801561042457600080fd5b50610317610433366004611aa1565b6111d8565b34801561044457600080fd5b506101fa610453366004611f40565b6111ea565b34801561046457600080fd5b506103426112f5565b34801561047957600080fd5b506101fa610488366004611abd565b61134c565b6101fa61049b366004611c90565b6114a0565b3480156104ac57600080fd5b506101fa6104bb366004611aa1565b611562565b3480156104cc57600080fd5b506104e06104db366004611ef0565b611703565b6040516103249190612169565b60035473ffffffffffffffffffffffffffffffffffffffff16331461051157600080fd5b6014830151604051610547907f666600000000000000000000000000000000000000000000000000000000000090602001612032565b604051602081830303815290604052805190602001208260405160200161056e919061205f565b60405160208183030381529060405280519060200120141561063357600354604080516020808201835260008083528351918201845280825292517fc2fa481300000000000000000000000000000000000000000000000000000000815273ffffffffffffffffffffffffffffffffffffffff9094169363c2fa4813936106009360019390928491829160040161217c565b600060405180830381600087803b15801561061a57600080fd5b505af115801561062e573d6000803e3d6000fd5b505050505b73ffffffffffffffffffffffffffffffffffffffff1660009081526002602052604090208054600190810190915580548101905550505050565b6003546040517f07e0db1700000000000000000000000000000000000000000000000000000000815273ffffffffffffffffffffffffffffffffffffffff909116906307e0db17906106c39084906004016122f0565b600060405180830381600087803b1580156106dd57600080fd5b505af11580156106f1573d6000803e3d6000fd5b5050505050565b6040516002906000906107159083908790879087906020016120b0565b604080517fffffffffffffffffffffffffffffffffffffffffffffffffffffffffffffffe0818403018152600354602084018352600080855292517fc580310000000000000000000000000000000000000000000000000000000000815291945073ffffffffffffffffffffffffffffffffffffffff169263c58031009234926107ac928e928e928e929133918b90600401612377565b6000604051808303818588803b1580156107c557600080fd5b505af11580156107d9573d6000803e3d6000fd5b50505050505050505050505050565b6003546040517f10ddb13700000000000000000000000000000000000000000000000000000000815273ffffffffffffffffffffffffffffffffffffffff909116906310ddb137906106c39084906004016122f0565b6003546040517f096568f600000000000000000000000000000000000000000000000000000000815273ffffffffffffffffffffffffffffffffffffffff9091169063cbed8b9c90829063096568f69061089c903090600401612117565b60206040518083038186803b1580156108b457600080fd5b505afa1580156108c8573d6000803e3d6000fd5b505050506040513d601f19601f820116820180604052508101906108ec9190611c3c565b8460058560405160200161090091906122f0565b6040516020818303038152906040526040518563ffffffff1660e01b815260040161092e9493929190612427565b600060405180830381600087803b15801561094857600080fd5b505af115801561095c573d6000803e3d6000fd5b505050505050565b61096c61184f565b73ffffffffffffffffffffffffffffffffffffffff1661098a611030565b73ffffffffffffffffffffffffffffffffffffffff1614610a0c57604080517f08c379a000000000000000000000000000000000000000000000000000000000815260206004820181905260248201527f4f776e61626c653a2063616c6c6572206973206e6f7420746865206f776e6572604482015290519081900360640190fd5b6003805491151574010000000000000000000000000000000000000000027fffffffffffffffffffffff00ffffffffffffffffffffffffffffffffffffffff909216919091179055565b505050565b6003546040517f096568f600000000000000000000000000000000000000000000000000000000815260069173ffffffffffffffffffffffffffffffffffffffff169063cbed8b9c90829063096568f690610aba903090600401612117565b60206040518083038186803b158015610ad257600080fd5b505afa158015610ae6573d6000803e3d6000fd5b505050506040513d601f19601f82011682018060405250810190610b0a9190611c3c565b858486604051602001610b1d9190612117565b6040516020818303038152906040526040518563ffffffff1660e01b8152600401610b4b9493929190612427565b600060405180830381600087803b158015610b6557600080fd5b505af1158015610b79573d6000803e3d6000fd5b50505050505050565b838214610bbb576040517f08c379a00000000000000000000000000000000000000000000000000000000081526004016101f1906121ea565b836000610bc83483611853565b60035490915060009074010000000000000000000000000000000000000000900460ff16610bf7576000610bf9565b305b905060005b83811015610cf95760035473ffffffffffffffffffffffffffffffffffffffff1663c5803100848b8b85818110610c3157fe5b9050602002016020810190610c469190611c20565b8a8a86818110610c5257fe5b9050602002810190610c6491906124a0565b6040805160208082018352600080835283519182018452815291517fffffffff0000000000000000000000000000000000000000000000000000000060e089901b168152610cbc959493928e918c9190600401612377565b6000604051808303818588803b158015610cd557600080fd5b505af1158015610ce9573d6000803e3d6000fd5b5050505050806001019050610bfe565b506000610d10610d0984866118d6565b3490611950565b60405190915073ffffffffffffffffffffffffffffffffffffffff86169082156108fc029083906000818181858888f19350505050158015610d56573d6000803e3d6000fd5b50505050505050505050565b60015481565b6003546040517f096568f600000000000000000000000000000000000000000000000000000000815260009173ffffffffffffffffffffffffffffffffffffffff169063096568f690610dbf903090600401612117565b60206040518083038186803b158015610dd757600080fd5b505afa158015610deb573d6000803e3d6000fd5b505050506040513d601f19601f82011682018060405250810190610e0f9190611c3c565b905090565b60035473ffffffffffffffffffffffffffffffffffffffff1681565b6003546040517f096568f600000000000000000000000000000000000000000000000000000000815273ffffffffffffffffffffffffffffffffffffffff9091169063cbed8b9c90829063096568f690610e8e903090600401612117565b60206040518083038186803b158015610ea657600080fd5b505afa158015610eba573d6000803e3d6000fd5b505050506040513d601f19601f82011682018060405250810190610ede9190611c3c565b8460028560405160200161090091906122f0565b610efa61184f565b73ffffffffffffffffffffffffffffffffffffffff16610f18611030565b73ffffffffffffffffffffffffffffffffffffffff1614610f9a57604080517f08c379a000000000000000000000000000000000000000000000000000000000815260206004820181905260248201527f4f776e61626c653a2063616c6c6572206973206e6f7420746865206f776e6572604482015290519081900360640190fd5b6000805460405173ffffffffffffffffffffffffffffffffffffffff909116907f8be0079c531659141344cd1fd0a4f28419497f9722a3daafe3b4186f6b6457e0908390a3600080547fffffffffffffffffffffffff0000000000000000000000000000000000000000169055565b60035474010000000000000000000000000000000000000000900460ff1681565b60015490565b60005473ffffffffffffffffffffffffffffffffffffffff1690565b60035460009074010000000000000000000000000000000000000000900460ff1661107857600061107a565b305b600354604080516020810182526000815290517fc580310000000000000000000000000000000000000000000000000000000000815292935073ffffffffffffffffffffffffffffffffffffffff9091169163c58031009134916110ee918b918b918b918b918b9133918c916004016122ff565b6000604051808303818588803b15801561110757600080fd5b505af115801561111b573d6000803e3d6000fd5b5050505050505050505050565b604051600190600090611141908390859060200161207b565b604080517fffffffffffffffffffffffffffffffffffffffffffffffffffffffffffffffe0818403018152600354602084018352600080855292517fc580310000000000000000000000000000000000000000000000000000000000815291945073ffffffffffffffffffffffffffffffffffffffff169263c58031009234926110ee928c928c928c929133918b90600401612377565b60026020526000908152604090205481565b6003546040517f096568f600000000000000000000000000000000000000000000000000000000815273ffffffffffffffffffffffffffffffffffffffff9091169063cbed8b9c90829063096568f690611248903090600401612117565b60206040518083038186803b15801561126057600080fd5b505afa158015611274573d6000803e3d6000fd5b505050506040513d601f19601f820116820180604052508101906112989190611c3c565b868686866040518663ffffffff1660e01b81526004016112bc95949392919061245e565b600060405180830381600087803b1580156112d657600080fd5b505af11580156112ea573d6000803e3d6000fd5b505050505050505050565b6003546040517fda1a7c9a00000000000000000000000000000000000000000000000000000000815260009173ffffffffffffffffffffffffffffffffffffffff169063da1a7c9a90610dbf903090600401612117565b61135461184f565b73ffffffffffffffffffffffffffffffffffffffff16611372611030565b73ffffffffffffffffffffffffffffffffffffffff16146113f457604080517f08c379a000000000000000000000000000000000000000000000000000000000815260206004820181905260248201527f4f776e61626c653a2063616c6c6572206973206e6f7420746865206f776e6572604482015290519081900360640190fd5b6040517f095ea7b300000000000000000000000000000000000000000000000000000000815273ffffffffffffffffffffffffffffffffffffffff84169063095ea7b3906114489085908590600401612138565b602060405180830381600087803b15801561146257600080fd5b505af1158015611476573d6000803e3d6000fd5b505050506040513d601f19601f8201168201806040525081019061149a9190611b9a565b50505050565b60035460009074010000000000000000000000000000000000000000900460ff166114cc5760006114ce565b305b6003546040805160208082018352600080835283519182018452815291517fc580310000000000000000000000000000000000000000000000000000000000815293945073ffffffffffffffffffffffffffffffffffffffff9092169263c5803100923492611549928a928a928a9233918b91600401612377565b6000604051808303818588803b1580156112d657600080fd5b61156a61184f565b73ffffffffffffffffffffffffffffffffffffffff16611588611030565b73ffffffffffffffffffffffffffffffffffffffff161461160a57604080517f08c379a000000000000000000000000000000000000000000000000000000000815260206004820181905260248201527f4f776e61626c653a2063616c6c6572206973206e6f7420746865206f776e6572604482015290519081900360640190fd5b73ffffffffffffffffffffffffffffffffffffffff8116611676576040517f08c379a00000000000000000000000000000000000000000000000000000000081526004018080602001828103825260268152602001806125d76026913960400191505060405180910390fd5b6000805460405173ffffffffffffffffffffffffffffffffffffffff808516939216917f8be0079c531659141344cd1fd0a4f28419497f9722a3daafe3b4186f6b6457e091a3600080547fffffffffffffffffffffffff00000000000000000000000000000000000000001673ffffffffffffffffffffffffffffffffffffffff92909216919091179055565b6003546040517f096568f600000000000000000000000000000000000000000000000000000000815260609173ffffffffffffffffffffffffffffffffffffffff169063f5ecbdbc90829063096568f690611762903090600401612117565b60206040518083038186803b15801561177a57600080fd5b505afa15801561178e573d6000803e3d6000fd5b505050506040513d601f19601f820116820180604052508101906117b29190611c3c565b8630866040518563ffffffff1660e01b81526004016117d494939291906123ed565b60006040518083038186803b1580156117ec57600080fd5b505afa158015611800573d6000803e3d6000fd5b505050506040513d6000823e601f3d9081017fffffffffffffffffffffffffffffffffffffffffffffffffffffffffffffffe01682016040526118469190810190611bb6565b95945050505050565b3390565b60008082116118c357604080517f08c379a000000000000000000000000000000000000000000000000000000000815260206004820152601a60248201527f536166654d6174683a206469766973696f6e206279207a65726f000000000000604482015290519081900360640190fd5b8183816118cc57fe5b0490505b92915050565b6000826118e5575060006118d0565b828202828482816118f257fe5b0414611949576040517f08c379a00000000000000000000000000000000000000000000000000000000081526004018080602001828103825260218152602001806125fd6021913960400191505060405180910390fd5b9392505050565b6000828211156119c157604080517f08c379a000000000000000000000000000000000000000000000000000000000815260206004820152601e60248201527f536166654d6174683a207375627472616374696f6e206f766572666c6f770000604482015290519081900360640190fd5b50900390565b60008083601f8401126119d8578182fd5b50813567ffffffffffffffff8111156119ef578182fd5b6020830191508360208083028501011115611a0957600080fd5b9250929050565b60008083601f840112611a21578182fd5b50813567ffffffffffffffff811115611a38578182fd5b602083019150836020828501011115611a0957600080fd5b600082601f830112611a60578081fd5b8135611a73611a6e82612527565b612503565b818152846020838601011115611a87578283fd5b816020850160208301379081016020019190915292915050565b600060208284031215611ab2578081fd5b813561194981612593565b600080600060608486031215611ad1578182fd5b8335611adc81612593565b92506020840135611aec81612593565b929592945050506040919091013590565b600080600080600060608688031215611b14578081fd5b853567ffffffffffffffff80821115611b2b578283fd5b611b3789838a016119c7565b90975095506020880135915080821115611b4f578283fd5b50611b5c888289016119c7565b9094509250506040860135611b7081612593565b809150509295509295909350565b600060208284031215611b8f578081fd5b8135611949816125b8565b600060208284031215611bab578081fd5b8151611949816125b8565b600060208284031215611bc7578081fd5b815167ffffffffffffffff811115611bdd578182fd5b8201601f81018413611bed578182fd5b8051611bfb611a6e82612527565b818152856020838501011115611c0f578384fd5b611846826020830160208601612567565b600060208284031215611c31578081fd5b8135611949816125c6565b600060208284031215611c4d578081fd5b8151611949816125c6565b60008060408385031215611c6a578182fd5b8235611c75816125c6565b91506020830135611c8581612593565b809150509250929050565b600080600060408486031215611ca4578283fd5b8335611caf816125c6565b9250602084013567ffffffffffffffff811115611cca578283fd5b611cd686828701611a10565b9497909650939450505050565b600080600080600060608688031215611cfa578081fd5b8535611d05816125c6565b9450602086013567ffffffffffffffff80821115611d21578283fd5b611d2d89838a01611a10565b90965094506040880135915080821115611d45578283fd5b50611d5288828901611a10565b969995985093965092949392505050565b60008060008060608587031215611d78578182fd5b8435611d83816125c6565b9350602085013567ffffffffffffffff811115611d9e578283fd5b611daa87828801611a10565b9598909750949560400135949350505050565b60008060008060008060a08789031215611dd5578384fd5b8635611de0816125c6565b9550602087013567ffffffffffffffff811115611dfb578485fd5b611e0789828a01611a10565b90965094505060408701359250606087013591506080870135611e2981612593565b809150509295509295509295565b60008060008060808587031215611e4c578182fd5b8435611e57816125c6565b9350602085013567ffffffffffffffff80821115611e73578384fd5b611e7f88838901611a50565b9450604087013591508082168214611e95578384fd5b90925060608601359080821115611eaa578283fd5b50611eb787828801611a50565b91505092959194509250565b60008060408385031215611ed5578182fd5b8235611ee0816125c6565b91506020830135611c85816125c6565b60008060008060808587031215611f05578182fd5b8435611f10816125c6565b93506020850135611f20816125c6565b92506040850135611f3081612593565b9396929550929360600135925050565b600080600080600060808688031215611f57578283fd5b8535611f62816125c6565b94506020860135611f72816125c6565b935060408601359250606086013567ffffffffffffffff811115611f94578182fd5b611d5288828901611a10565b600082845282826020860137806020848601015260207fffffffffffffffffffffffffffffffffffffffffffffffffffffffffffffffe0601f85011685010190509392505050565b60008151808452612000816020860160208601612567565b601f017fffffffffffffffffffffffffffffffffffffffffffffffffffffffffffffffe0169290920160200192915050565b7fffffffffffffffffffff00000000000000000000000000000000000000000000919091168152600a0190565b60008251612071818460208701612567565b9190910192915050565b60f09290921b7fffff000000000000000000000000000000000000000000000000000000000000168252600282015260220190565b60f09490941b7fffff0000000000000000000000000000000000000000000000000000000000001684526002840192909252602283015260601b7fffffffffffffffffffffffffffffffffffffffff00000000000000000000000016604282015260560190565b73ffffffffffffffffffffffffffffffffffffffff91909116815260200190565b73ffffffffffffffffffffffffffffffffffffffff929092168252602082015260400190565b901515815260200190565b6000602082526119496020830184611fe8565b600061ffff8816825260c0602083015261219960c0830188611fe8565b73ffffffffffffffffffffffffffffffffffffffff8716604084015267ffffffffffffffff8616606084015284608084015282810360a08401526121dd8185611fe8565b9998505050505050505050565b60208082526041908201527f5f647374436861696e4964732e6c656e6774682c205f647374436f756e74657260408201527f4d6f636b4164647265737365732e6c656e677468206e6f74207468652073616d60608201527f6500000000000000000000000000000000000000000000000000000000000000608082015260a00190565b60208082526044908201527f44696420796f75206d65616e20746f2073656e64206120626c6f636b6564206160408201527f6d6f756e74202d20636865636b20726563656976652829202f2066616c6c626160608201527f636b282900000000000000000000000000000000000000000000000000000000608082015260a00190565b61ffff91909116815260200190565b600061ffff8a16825260c0602083015261231d60c08301898b611fa0565b828103604084015261233081888a611fa0565b73ffffffffffffffffffffffffffffffffffffffff87811660608601528616608085015283810360a085015290506123688185611fe8565b9b9a5050505050505050505050565b600061ffff8916825260c0602083015261239560c08301888a611fa0565b82810360408401526123a78188611fe8565b73ffffffffffffffffffffffffffffffffffffffff87811660608601528616608085015283810360a085015290506123df8185611fe8565b9a9950505050505050505050565b61ffff948516815292909316602083015273ffffffffffffffffffffffffffffffffffffffff166040820152606081019190915260800190565b600061ffff8087168352808616602084015250836040830152608060608301526124546080830184611fe8565b9695505050505050565b600061ffff80881683528087166020840152508460408301526080606083015261248c608083018486611fa0565b979650505050505050565b90815260200190565b60008083357fffffffffffffffffffffffffffffffffffffffffffffffffffffffffffffffe18436030181126124d4578283fd5b83018035915067ffffffffffffffff8211156124ee578283fd5b602001915036819003821315611a0957600080fd5b60405181810167ffffffffffffffff8111828210171561251f57fe5b604052919050565b600067ffffffffffffffff82111561253b57fe5b50601f017fffffffffffffffffffffffffffffffffffffffffffffffffffffffffffffffe01660200190565b60005b8381101561258257818101518382015260200161256a565b8381111561149a5750506000910152565b73ffffffffffffffffffffffffffffffffffffffff811681146125b557600080fd5b50565b80151581146125b557600080fd5b61ffff811681146125b557600080fdfe4f776e61626c653a206e6577206f776e657220697320746865207a65726f2061646472657373536166654d6174683a206d756c7469706c69636174696f6e206f766572666c6f77a26469706673582212202f153830959b6cad7edc168ca57ac3a08de931d332126dd4394b42e484fdd7f664736f6c63430007060033",
  "devdoc": {
    "kind": "dev",
    "methods": {
      "owner()": {
        "details": "Returns the address of the current owner."
      },
      "renounceOwnership()": {
        "details": "Leaves the contract without owner. It will not be possible to call `onlyOwner` functions anymore. Can only be called by the current owner. NOTE: Renouncing ownership will leave the contract without an owner, thereby removing any functionality that is only available to the owner."
      },
      "transferOwnership(address)": {
        "details": "Transfers ownership of the contract to a new account (`newOwner`). Can only be called by the current owner."
      }
    },
    "version": 1
  },
  "userdoc": {
    "kind": "user",
    "methods": {},
    "version": 1
  },
  "storageLayout": {
    "storage": [
      {
        "astId": 493,
        "contract": "contracts/mocks/OmniCounter.sol:OmniCounter",
        "label": "_owner",
        "offset": 0,
        "slot": "0",
        "type": "t_address"
      },
      {
        "astId": 10203,
        "contract": "contracts/mocks/OmniCounter.sol:OmniCounter",
        "label": "messageCounter",
        "offset": 0,
        "slot": "1",
        "type": "t_uint256"
      },
      {
        "astId": 10207,
        "contract": "contracts/mocks/OmniCounter.sol:OmniCounter",
        "label": "remoteAddressCounter",
        "offset": 0,
        "slot": "2",
        "type": "t_mapping(t_address,t_uint256)"
      },
      {
        "astId": 10209,
        "contract": "contracts/mocks/OmniCounter.sol:OmniCounter",
        "label": "endpoint",
        "offset": 0,
        "slot": "3",
        "type": "t_contract(ILayerZeroEndpoint)8983"
      },
      {
        "astId": 10211,
        "contract": "contracts/mocks/OmniCounter.sol:OmniCounter",
        "label": "payInZRO",
        "offset": 20,
        "slot": "3",
        "type": "t_bool"
      }
    ],
    "types": {
      "t_address": {
        "encoding": "inplace",
        "label": "address",
        "numberOfBytes": "20"
      },
      "t_bool": {
        "encoding": "inplace",
        "label": "bool",
        "numberOfBytes": "1"
      },
      "t_contract(ILayerZeroEndpoint)8983": {
        "encoding": "inplace",
        "label": "contract ILayerZeroEndpoint",
        "numberOfBytes": "20"
      },
      "t_mapping(t_address,t_uint256)": {
        "encoding": "mapping",
        "key": "t_address",
        "label": "mapping(address => uint256)",
        "numberOfBytes": "32",
        "value": "t_uint256"
      },
      "t_uint256": {
        "encoding": "inplace",
        "label": "uint256",
        "numberOfBytes": "32"
      }
    }
  }
}